{
  "_format": "hh-sol-artifact-1",
  "contractName": "PaymentGatewayV2",
  "sourceName": "contracts/PaymentGatewayV2.sol",
  "abi": [
    {
      "inputs": [
        {
          "internalType": "address",
          "name": "initialOwner",
          "type": "address"
        },
        {
          "internalType": "address",
          "name": "facilitator_",
          "type": "address"
        },
        {
          "internalType": "address",
          "name": "feeCollector_",
          "type": "address"
        }
      ],
      "stateMutability": "nonpayable",
      "type": "constructor"
    },
    {
      "inputs": [],
      "name": "AlreadySettled",
      "type": "error"
    },
    {
      "inputs": [],
      "name": "InvalidQuote",
      "type": "error"
    },
    {
      "inputs": [],
      "name": "NotExpired",
      "type": "error"
    },
    {
      "inputs": [],
      "name": "NotFacilitator",
      "type": "error"
    },
    {
      "inputs": [],
      "name": "NotRefundable",
      "type": "error"
    },
    {
      "inputs": [
        {
          "internalType": "address",
          "name": "owner",
          "type": "address"
        }
      ],
      "name": "OwnableInvalidOwner",
      "type": "error"
    },
    {
      "inputs": [
        {
          "internalType": "address",
          "name": "account",
          "type": "address"
        }
      ],
      "name": "OwnableUnauthorizedAccount",
      "type": "error"
    },
    {
      "inputs": [],
      "name": "ReentrancyGuardReentrantCall",
      "type": "error"
    },
    {
      "inputs": [
        {
          "internalType": "address",
          "name": "token",
          "type": "address"
        }
      ],
      "name": "SafeERC20FailedOperation",
      "type": "error"
    },
    {
      "anonymous": false,
      "inputs": [
        {
          "indexed": true,
          "internalType": "address",
          "name": "previousOwner",
          "type": "address"
        },
        {
          "indexed": true,
          "internalType": "address",
          "name": "newOwner",
          "type": "address"
        }
      ],
      "name": "OwnershipTransferred",
      "type": "event"
    },
    {
      "anonymous": false,
      "inputs": [
        {
          "indexed": true,
          "internalType": "bytes32",
          "name": "pid",
          "type": "bytes32"
        },
        {
          "indexed": true,
          "internalType": "address",
          "name": "payer",
          "type": "address"
        },
        {
          "indexed": false,
          "internalType": "address",
          "name": "token",
          "type": "address"
        },
        {
          "indexed": false,
          "internalType": "uint256",
          "name": "amount",
          "type": "uint256"
        },
        {
          "indexed": false,
          "internalType": "uint256",
          "name": "fee",
          "type": "uint256"
        },
        {
          "indexed": false,
          "internalType": "uint256",
          "name": "expiry",
          "type": "uint256"
        }
      ],
      "name": "PaymentQuoted",
      "type": "event"
    },
    {
      "anonymous": false,
      "inputs": [
        {
          "indexed": true,
          "internalType": "bytes32",
          "name": "pid",
          "type": "bytes32"
        },
        {
          "indexed": true,
          "internalType": "address",
          "name": "payer",
          "type": "address"
        },
        {
          "indexed": false,
          "internalType": "uint256",
          "name": "amount",
          "type": "uint256"
        }
      ],
      "name": "PaymentRefunded",
      "type": "event"
    },
    {
      "anonymous": false,
      "inputs": [
        {
          "indexed": true,
          "internalType": "bytes32",
          "name": "pid",
          "type": "bytes32"
        },
        {
          "indexed": true,
          "internalType": "address",
          "name": "payer",
          "type": "address"
        },
        {
          "indexed": true,
          "internalType": "address",
          "name": "payee",
          "type": "address"
        },
        {
          "indexed": false,
          "internalType": "uint256",
          "name": "netAmount",
          "type": "uint256"
        },
        {
          "indexed": false,
          "internalType": "uint256",
          "name": "fee",
          "type": "uint256"
        }
      ],
      "name": "PaymentSettled",
      "type": "event"
    },
    {
      "inputs": [],
      "name": "EIP712_NAME",
      "outputs": [
        {
          "internalType": "string",
          "name": "",
          "type": "string"
        }
      ],
      "stateMutability": "view",
      "type": "function"
    },
    {
      "inputs": [],
      "name": "EIP712_QUOTE_TYPEHASH",
      "outputs": [
        {
          "internalType": "bytes32",
          "name": "",
          "type": "bytes32"
        }
      ],
      "stateMutability": "view",
      "type": "function"
    },
    {
      "inputs": [],
      "name": "EIP712_VERSION",
      "outputs": [
        {
          "internalType": "string",
          "name": "",
          "type": "string"
        }
      ],
      "stateMutability": "view",
      "type": "function"
    },
    {
      "inputs": [],
      "name": "domainSeparator",
      "outputs": [
        {
          "internalType": "bytes32",
          "name": "",
          "type": "bytes32"
        }
      ],
      "stateMutability": "view",
      "type": "function"
    },
    {
      "inputs": [],
      "name": "facilitator",
      "outputs": [
        {
          "internalType": "address",
          "name": "",
          "type": "address"
        }
      ],
      "stateMutability": "view",
      "type": "function"
    },
    {
      "inputs": [],
      "name": "feeCollector",
      "outputs": [
        {
          "internalType": "address",
          "name": "",
          "type": "address"
        }
      ],
      "stateMutability": "view",
      "type": "function"
    },
    {
      "inputs": [],
      "name": "owner",
      "outputs": [
        {
          "internalType": "address",
          "name": "",
          "type": "address"
        }
      ],
      "stateMutability": "view",
      "type": "function"
    },
    {
      "inputs": [
        {
          "internalType": "bytes32",
          "name": "pid",
          "type": "bytes32"
        }
      ],
      "name": "pay",
      "outputs": [],
      "stateMutability": "nonpayable",
      "type": "function"
    },
    {
      "inputs": [
        {
          "internalType": "bytes32",
          "name": "pid",
          "type": "bytes32"
        },
        {
          "internalType": "uint256",
          "name": "value",
          "type": "uint256"
        },
        {
          "internalType": "uint256",
          "name": "deadline",
          "type": "uint256"
        },
        {
          "internalType": "uint8",
          "name": "v",
          "type": "uint8"
        },
        {
          "internalType": "bytes32",
          "name": "r",
          "type": "bytes32"
        },
        {
          "internalType": "bytes32",
          "name": "s",
          "type": "bytes32"
        }
      ],
      "name": "payWithPermit",
      "outputs": [],
      "stateMutability": "nonpayable",
      "type": "function"
    },
    {
      "inputs": [
        {
          "internalType": "bytes32",
          "name": "",
          "type": "bytes32"
        }
      ],
      "name": "payments",
      "outputs": [
        {
          "internalType": "address",
          "name": "payer",
          "type": "address"
        },
        {
          "internalType": "address",
          "name": "payee",
          "type": "address"
        },
        {
          "internalType": "address",
          "name": "token",
          "type": "address"
        },
        {
          "internalType": "uint256",
          "name": "amount",
          "type": "uint256"
        },
        {
          "internalType": "uint256",
          "name": "fee",
          "type": "uint256"
        },
        {
          "internalType": "uint256",
          "name": "expiry",
          "type": "uint256"
        },
        {
          "internalType": "bool",
          "name": "settled",
          "type": "bool"
        },
        {
          "internalType": "bool",
          "name": "refunded",
          "type": "bool"
        }
      ],
      "stateMutability": "view",
      "type": "function"
    },
    {
      "inputs": [
        {
          "components": [
            {
              "internalType": "address",
              "name": "payer",
              "type": "address"
            },
            {
              "internalType": "address",
              "name": "payee",
              "type": "address"
            },
            {
              "internalType": "address",
              "name": "token",
              "type": "address"
            },
            {
              "internalType": "uint256",
              "name": "amount",
              "type": "uint256"
            },
            {
              "internalType": "uint256",
              "name": "fee",
              "type": "uint256"
            },
            {
              "internalType": "uint256",
              "name": "expiry",
              "type": "uint256"
            },
            {
              "internalType": "bytes32",
              "name": "pid",
              "type": "bytes32"
            }
          ],
          "internalType": "struct PaymentGatewayV2.Quote",
          "name": "q",
          "type": "tuple"
        },
        {
          "internalType": "bytes",
          "name": "facilitatorSig",
          "type": "bytes"
        }
      ],
      "name": "quote",
      "outputs": [],
      "stateMutability": "nonpayable",
      "type": "function"
    },
    {
      "inputs": [
        {
          "internalType": "bytes32",
          "name": "pid",
          "type": "bytes32"
        }
      ],
      "name": "refund",
      "outputs": [],
      "stateMutability": "nonpayable",
      "type": "function"
    },
    {
      "inputs": [],
      "name": "renounceOwnership",
      "outputs": [],
      "stateMutability": "nonpayable",
      "type": "function"
    },
    {
      "inputs": [
        {
          "internalType": "address",
          "name": "facilitator_",
          "type": "address"
        }
      ],
      "name": "setFacilitator",
      "outputs": [],
      "stateMutability": "nonpayable",
      "type": "function"
    },
    {
      "inputs": [
        {
          "internalType": "address",
          "name": "feeCollector_",
          "type": "address"
        }
      ],
      "name": "setFeeCollector",
      "outputs": [],
      "stateMutability": "nonpayable",
      "type": "function"
    },
    {
      "inputs": [
        {
          "internalType": "address",
          "name": "newOwner",
          "type": "address"
        }
      ],
      "name": "transferOwnership",
      "outputs": [],
      "stateMutability": "nonpayable",
      "type": "function"
    }
  ],
  "bytecode": "0x60a06040523480156200001157600080fd5b50604051620011a2380380620011a28339810160408190526200003491620001f5565b826001600160a01b0381166200006457604051631e4fbdf760e01b81526000600482015260240160405180910390fd5b6200006f8162000188565b5060018055600280546001600160a01b038085166001600160a01b03199283161790925560038054928416929091169190911790556200017b604080518082018252600c81526b1e0d0c0c8814185e5b595b9d60a21b6020918201528151808301835260018152603160f81b9082015281517f8b73c3c69bb8fe3d512ecc4cf759cc79239f7b179b0ffacaa9a75d522b39400f818301527f91961bd54729d1f6e6778a00c465791ad5d0d7afd671c44ac3e919bd93ed96fa818401527fc89efdaa54c0f20c7adf612882df0950f5a951637e0307cdcb4c672f298b8bc660608201524660808201523060a0808301919091528351808303909101815260c0909101909252815191012090565b608052506200023f915050565b600080546001600160a01b038381166001600160a01b0319831681178455604051919092169283917f8be0079c531659141344cd1fd0a4f28419497f9722a3daafe3b4186f6b6457e09190a35050565b80516001600160a01b0381168114620001f057600080fd5b919050565b6000806000606084860312156200020b57600080fd5b6200021684620001d8565b92506200022660208501620001d8565b91506200023660408501620001d8565b90509250925092565b608051610f40620002626000396000818161032a015261077a0152610f406000f3fe608060405234801561001057600080fd5b50600436106101005760003560e01c80638609cad111610097578063c415b95c11610066578063c415b95c146102e2578063eccec5a8146102f5578063f2fde38b14610315578063f698da251461032857600080fd5b80638609cad1146102985780638da5cb5b146102ab578063a42dce80146102bc578063c20408c0146102cf57600080fd5b8063715018a6116100d3578063715018a61461023f5780637249fbb61461024757806375bcb1611461025a5780637797cee41461026d57600080fd5b80630716326d1461010557806316f107bf146101bd5780633b2fb7a8146101d2578063457377611461020a575b600080fd5b61016a610113366004610d4b565b600460208190526000918252604090912080546001820154600283015460038401549484015460058501546006909501546001600160a01b0394851696938516959490921693909160ff8082169161010090041688565b604080516001600160a01b03998a168152978916602089015295909716948601949094526060850192909252608084015260a0830152151560c082015290151560e0820152610100015b60405180910390f35b6101d06101cb366004610d64565b61034e565b005b6101fd6040518060400160405280600c81526020016b1e0d0c0c8814185e5b595b9d60a21b81525081565b6040516101b49190610dbd565b6102317f6099def6643468660644c0b5ca802c1070d07313db4aaebd42dda071e8f2022081565b6040519081526020016101b4565b6101d061046c565b6101d0610255366004610d4b565b610480565b6101d0610268366004610e0c565b61058c565b600254610280906001600160a01b031681565b6040516001600160a01b0390911681526020016101b4565b6101d06102a6366004610d4b565b6105b6565b6000546001600160a01b0316610280565b6101d06102ca366004610e0c565b610642565b6101d06102dd366004610e3c565b61066c565b600354610280906001600160a01b031681565b6101fd604051806040016040528060018152602001603160f81b81525081565b6101d0610323366004610e0c565b6109ae565b7f0000000000000000000000000000000000000000000000000000000000000000610231565b6103566109ee565b600086815260046020526040902080546001600160a01b0316331461038e57604051630f86180360e41b815260040160405180910390fd5b600681015460ff16806103aa57506006810154610100900460ff165b156103c75760405162560ff960e81b815260040160405180910390fd5b600281015460405163d505accf60e01b8152336004820152306024820152604481018890526064810187905260ff8616608482015260a4810185905260c481018490526001600160a01b039091169063d505accf9060e401600060405180830381600087803b15801561043957600080fd5b505af115801561044d573d6000803e3d6000fd5b5050505061045a87610a18565b5061046460018055565b505050505050565b610474610b15565b61047e6000610b42565b565b6002546001600160a01b031633146104ab5760405163bd37327f60e01b815260040160405180910390fd5b6104b36109ee565b6000818152600460205260409020600681015460ff16806104dd57506006810154610100900460ff165b156104fb57604051631ba168fb60e11b815260040160405180910390fd5b80600501544210156105205760405163d0404f8560e01b815260040160405180910390fd5b60068101805461ff001916610100179055805460038201546040516001600160a01b039092169184917f3b28817a65441bed1ac3a5496c6b71346aa302e80c7418c12e1c49eaa17211769161057791815260200190565b60405180910390a35061058960018055565b50565b610594610b15565b600280546001600160a01b0319166001600160a01b0392909216919091179055565b6105be6109ee565b600081815260046020526040902080546001600160a01b031633146105f657604051630f86180360e41b815260040160405180910390fd5b600681015460ff168061061257506006810154610100900460ff165b1561062f5760405162560ff960e81b815260040160405180910390fd5b61063882610a18565b5061058960018055565b61064a610b15565b600380546001600160a01b0319166001600160a01b0392909216919091179055565b6002546001600160a01b031633146106975760405163bd37327f60e01b815260040160405180910390fd5b60007f6099def6643468660644c0b5ca802c1070d07313db4aaebd42dda071e8f202206106c76020860186610e0c565b6106d76040870160208801610e0c565b6106e76060880160408901610e0c565b876060013588608001358960a001358a60c001356040516020016107529897969594939291909788526001600160a01b0396871660208901529486166040880152929094166060860152608085015260a084019290925260c083019190915260e08201526101000190565b60408051601f1981840301815290829052805160209182012061190160f01b918301919091527f0000000000000000000000000000000000000000000000000000000000000000602283015260428201819052915060009060620160405160208183030381529060405280519060200120905060006108078286868080601f016020809104026020016040519081016040528093929190818152602001838380828437600092019190915250610b9292505050565b6002549091506001600160a01b0380831691161461083857604051630f86180360e41b815260040160405180910390fd5b60c0860135600090815260046020526040902080546001600160a01b03161561087457604051630f86180360e41b815260040160405180910390fd5b6108816020880188610e0c565b81546001600160a01b0319166001600160a01b03919091161781556108ac6040880160208901610e0c565b6001820180546001600160a01b0319166001600160a01b03929092169190911790556108de6060880160408901610e0c565b6002820180546001600160a01b0319166001600160a01b0392909216919091179055606087013560038201556080870135600482015560a0870135600582015561092b6020880188610e0c565b6001600160a01b031660c08801357fab138dc6c3cdd32263fee6bbbec7e47391552798b0e5e9c24be34e7622ac836b61096a60608b0160408c01610e0c565b604080516001600160a01b0390921682526060808d013560208401526080808e01359284019290925260a08d0135908301520160405180910390a350505050505050565b6109b6610b15565b6001600160a01b0381166109e557604051631e4fbdf760e01b8152600060048201526024015b60405180910390fd5b61058981610b42565b600260015403610a1157604051633ee5aeb560e01b815260040160405180910390fd5b6002600155565b6000818152600460205260409020805460038201546002830154610a4c926001600160a01b03918216929116903090610c37565b60048101546003820154600090610a64908390610ede565b60018401546002850154919250610a88916001600160a01b03908116911683610ca4565b8115610aad576003546002840154610aad916001600160a01b03918216911684610ca4565b60068301805460ff19166001908117909155830154835460408051848152602081018690526001600160a01b03938416939092169187917f68ebe01b4f352b6188e551d6ff2b1636a7df4c2c84a6a9236ec0cc75cd235056910160405180910390a450505050565b6000546001600160a01b0316331461047e5760405163118cdaa760e01b81523360048201526024016109dc565b600080546001600160a01b038381166001600160a01b0319831681178455604051919092169283917f8be0079c531659141344cd1fd0a4f28419497f9722a3daafe3b4186f6b6457e09190a35050565b60008151604114610ba557506000610c31565b60208201516040830151606084015160001a601b811015610bce57610bcb601b82610ef1565b90505b60408051600081526020810180835288905260ff831691810191909152606081018490526080810183905260019060a0016020604051602081039080840390855afa158015610c21573d6000803e3d6000fd5b5050506020604051035193505050505b92915050565b6040516001600160a01b038481166024830152838116604483015260648201839052610c9e9186918216906323b872dd906084015b604051602081830303815290604052915060e01b6020820180516001600160e01b038381831617835250505050610cda565b50505050565b6040516001600160a01b03838116602483015260448201839052610cd591859182169063a9059cbb90606401610c6c565b505050565b600080602060008451602086016000885af180610cfd576040513d6000823e3d81fd5b50506000513d91508115610d15578060011415610d22565b6001600160a01b0384163b155b15610c9e57604051635274afe760e01b81526001600160a01b03851660048201526024016109dc565b600060208284031215610d5d57600080fd5b5035919050565b60008060008060008060c08789031215610d7d57600080fd5b863595506020870135945060408701359350606087013560ff81168114610da357600080fd5b9598949750929560808101359460a0909101359350915050565b60006020808352835180602085015260005b81811015610deb57858101830151858201604001528201610dcf565b506000604082860101526040601f19601f8301168501019250505092915050565b600060208284031215610e1e57600080fd5b81356001600160a01b0381168114610e3557600080fd5b9392505050565b6000806000838503610100811215610e5357600080fd5b60e0811215610e6157600080fd5b5083925060e084013567ffffffffffffffff80821115610e8057600080fd5b818601915086601f830112610e9457600080fd5b813581811115610ea357600080fd5b876020828501011115610eb557600080fd5b6020830194508093505050509250925092565b634e487b7160e01b600052601160045260246000fd5b81810381811115610c3157610c31610ec8565b60ff8181168382160190811115610c3157610c31610ec856fea264697066735822122058a944b7153787e2f7559999f6a0021451f654b27cd5c716ca6067e9add2a20e64736f6c63430008180033",
  "linkReferences": {},
  "deployedLinkReferences": {}
}