{
  "_format": "hh-sol-artifact-1",
  "contractName": "CreditEngine",
  "sourceName": "contracts/CreditEngine.sol",
  "abi": [
    {
      "inputs": [
        {
          "internalType": "address",
          "name": "reputation_",
          "type": "address"
        },
        {
          "internalType": "address",
          "name": "collateral_",
          "type": "address"
        },
        {
          "internalType": "address",
          "name": "owner_",
          "type": "address"
        }
      ],
      "stateMutability": "nonpayable",
      "type": "constructor"
    },
    {
      "inputs": [],
      "name": "InsufficientReputation",
      "type": "error"
    },
    {
      "inputs": [],
      "name": "NotEnoughCollateral",
      "type": "error"
    },
    {
      "inputs": [
        {
          "internalType": "address",
          "name": "owner",
          "type": "address"
        }
      ],
      "name": "OwnableInvalidOwner",
      "type": "error"
    },
    {
      "inputs": [
        {
          "internalType": "address",
          "name": "account",
          "type": "address"
        }
      ],
      "name": "OwnableUnauthorizedAccount",
      "type": "error"
    },
    {
      "anonymous": false,
      "inputs": [
        {
          "indexed": true,
          "internalType": "address",
          "name": "agent",
          "type": "address"
        },
        {
          "indexed": false,
          "internalType": "uint256",
          "name": "amount",
          "type": "uint256"
        }
      ],
      "name": "CollateralDeposited",
      "type": "event"
    },
    {
      "anonymous": false,
      "inputs": [
        {
          "indexed": true,
          "internalType": "address",
          "name": "agent",
          "type": "address"
        },
        {
          "indexed": false,
          "internalType": "uint256",
          "name": "amount",
          "type": "uint256"
        }
      ],
      "name": "CreditGranted",
      "type": "event"
    },
    {
      "anonymous": false,
      "inputs": [
        {
          "indexed": true,
          "internalType": "address",
          "name": "previousOwner",
          "type": "address"
        },
        {
          "indexed": true,
          "internalType": "address",
          "name": "newOwner",
          "type": "address"
        }
      ],
      "name": "OwnershipTransferred",
      "type": "event"
    },
    {
      "inputs": [],
      "name": "collateral",
      "outputs": [
        {
          "internalType": "contract IERC20",
          "name": "",
          "type": "address"
        }
      ],
      "stateMutability": "view",
      "type": "function"
    },
    {
      "inputs": [
        {
          "internalType": "address",
          "name": "",
          "type": "address"
        }
      ],
      "name": "collateralBalance",
      "outputs": [
        {
          "internalType": "uint256",
          "name": "",
          "type": "uint256"
        }
      ],
      "stateMutability": "view",
      "type": "function"
    },
    {
      "inputs": [
        {
          "internalType": "address",
          "name": "",
          "type": "address"
        }
      ],
      "name": "creditLine",
      "outputs": [
        {
          "internalType": "uint256",
          "name": "",
          "type": "uint256"
        }
      ],
      "stateMutability": "view",
      "type": "function"
    },
    {
      "inputs": [
        {
          "internalType": "uint256",
          "name": "amount",
          "type": "uint256"
        }
      ],
      "name": "depositCollateral",
      "outputs": [],
      "stateMutability": "nonpayable",
      "type": "function"
    },
    {
      "inputs": [
        {
          "internalType": "address",
          "name": "agent",
          "type": "address"
        },
        {
          "internalType": "uint256",
          "name": "amount",
          "type": "uint256"
        }
      ],
      "name": "grantCredit",
      "outputs": [],
      "stateMutability": "nonpayable",
      "type": "function"
    },
    {
      "inputs": [],
      "name": "owner",
      "outputs": [
        {
          "internalType": "address",
          "name": "",
          "type": "address"
        }
      ],
      "stateMutability": "view",
      "type": "function"
    },
    {
      "inputs": [],
      "name": "renounceOwnership",
      "outputs": [],
      "stateMutability": "nonpayable",
      "type": "function"
    },
    {
      "inputs": [],
      "name": "reputation",
      "outputs": [
        {
          "internalType": "contract IReputationView",
          "name": "",
          "type": "address"
        }
      ],
      "stateMutability": "view",
      "type": "function"
    },
    {
      "inputs": [
        {
          "internalType": "address",
          "name": "newOwner",
          "type": "address"
        }
      ],
      "name": "transferOwnership",
      "outputs": [],
      "stateMutability": "nonpayable",
      "type": "function"
    }
  ],
  "bytecode": "0x60c060405234801561001057600080fd5b5060405161076238038061076283398101604081905261002f916100ec565b806001600160a01b03811661005e57604051631e4fbdf760e01b81526000600482015260240160405180910390fd5b61006781610080565b50506001600160a01b039182166080521660a05261012f565b600080546001600160a01b038381166001600160a01b0319831681178455604051919092169283917f8be0079c531659141344cd1fd0a4f28419497f9722a3daafe3b4186f6b6457e09190a35050565b80516001600160a01b03811681146100e757600080fd5b919050565b60008060006060848603121561010157600080fd5b61010a846100d0565b9250610118602085016100d0565b9150610126604085016100d0565b90509250925092565b60805160a0516106006101626000396000818161016c015261033301526000818161014501526101cb01526106006000f3fe608060405234801561001057600080fd5b50600436106100935760003560e01c8063a1bf284011610066578063a1bf28401461010d578063bad4a01f1461012d578063c52164c614610140578063d8dfeb4514610167578063f2fde38b1461018e57600080fd5b80631c3536e71461009857806328fb4b59146100cb578063715018a6146100e05780638da5cb5b146100e8575b600080fd5b6100b86100a63660046104e1565b60016020526000908152604090205481565b6040519081526020015b60405180910390f35b6100de6100d9366004610503565b6101a1565b005b6100de6102fd565b6000546001600160a01b03165b6040516001600160a01b0390911681526020016100c2565b6100b861011b3660046104e1565b60026020526000908152604090205481565b6100de61013b36600461052d565b610311565b6100f57f000000000000000000000000000000000000000000000000000000000000000081565b6100f57f000000000000000000000000000000000000000000000000000000000000000081565b6100de61019c3660046104e1565b610405565b6101a9610448565b604051636d9185a960e11b81526001600160a01b0383811660048301526000917f00000000000000000000000000000000000000000000000000000000000000009091169063db230b5290602401602060405180830381865afa158015610214573d6000803e3d6000fd5b505050506040513d601f19601f820116820180604052508101906102389190610546565b90506000811361025b57604051631899c49760e31b815260040160405180910390fd5b6001600160a01b0383166000908152600260208190526040822054610280919061055f565b9050808311156102a25760405162d11df360e61b815260040160405180910390fd5b6001600160a01b03841660008181526001602052604090819020859055517faa51d68da91ff72a025fa361b05002e80291bcf18c6773a94f11b08e0bbf1277906102ef9086815260200190565b60405180910390a250505050565b610305610448565b61030f6000610475565b565b6040516323b872dd60e01b8152336004820152306024820152604481018290527f00000000000000000000000000000000000000000000000000000000000000006001600160a01b0316906323b872dd906064016020604051808303816000875af1158015610384573d6000803e3d6000fd5b505050506040513d601f19601f820116820180604052508101906103a89190610581565b5033600090815260026020526040812080548392906103c89084906105a3565b909155505060405181815233907fd7243f6f8212d5188fd054141cf6ea89cfc0d91facb8c3afe2f88a13584801429060200160405180910390a250565b61040d610448565b6001600160a01b03811661043c57604051631e4fbdf760e01b8152600060048201526024015b60405180910390fd5b61044581610475565b50565b6000546001600160a01b0316331461030f5760405163118cdaa760e01b8152336004820152602401610433565b600080546001600160a01b038381166001600160a01b0319831681178455604051919092169283917f8be0079c531659141344cd1fd0a4f28419497f9722a3daafe3b4186f6b6457e09190a35050565b80356001600160a01b03811681146104dc57600080fd5b919050565b6000602082840312156104f357600080fd5b6104fc826104c5565b9392505050565b6000806040838503121561051657600080fd5b61051f836104c5565b946020939093013593505050565b60006020828403121561053f57600080fd5b5035919050565b60006020828403121561055857600080fd5b5051919050565b60008261057c57634e487b7160e01b600052601260045260246000fd5b500490565b60006020828403121561059357600080fd5b815180151581146104fc57600080fd5b808201808211156105c457634e487b7160e01b600052601160045260246000fd5b9291505056fea264697066735822122041d5a2fc2eb67333f709b7af5cccec607090240bac1a6aa7cf1730497284d09864736f6c63430008180033",
  "linkReferences": {},
  "deployedLinkReferences": {}
}